:100000000C9462000C94B4020C94E1020C948A00EB
:100010000C948A000C948A000C948A000C948A0038
:100020000C948A000C948A000C948A000C948A0028
:100030000C948A000C948A000C948A000C948A0018
:100040000C94A80A0C948A000C9477040C94C504B0
:100050000C948A000C948A000C948A000C948A00F8
:100060000C948A000C948A000000000024002700F1
:100070002A0000000000250028002B0000000000DE
:1000800023002600290004040404040404040202DA
:100090000202020203030303030301020408102007
:1000A0004080010204081020010204081020000012
:1000B0000007000201000003040600000000000029
:1000C0000000310611241FBECFEFD8E0DEBFCDBF48
:1000D00011E0A0E0B1E0E8EEF6E102C005900D927B
:1000E000A632B107D9F712E0A6E2B1E001C01D9235
:1000F000AB32B107E1F710E0C4ECD0E004C02297C6
:10010000FE010E946E0BC23CD107C9F70E94870610
:100110000C94720B0C940000FC0188279927E8943A
:1001200021912032E9F3293010F02E30C8F32B3220
:1001300041F02D3239F4689404C00E94F500820F1A
:10014000911D219120532A30C0F31EF49095819582
:100150009F4F0895FB01DC0102C001900D924150B8
:100160005040D8F70895FB01DC018D910190801972
:100170000110D9F3990B0895FB01DC0101900D9258
:100180000020E1F70895009731F4DA018D919C91F8
:10019000009709F40EC0DC01FB013D91219122235F
:1001A00019F03217C9F3FACF332331F4DA011D9273
:1001B0001C928827992708951197AF93BF93FB014D
:1001C0003D912191321771F4332321F48827992727
:1001D000119702C01E921196FA01A193B0839F91CC
:1001E0008F910895222369F7EACF7AE0979F902DA7
:1001F000879F802D910D1124089581E00E94A10216
:1002000081E0809326010895FF920F931F930E942F
:100210006402813619F08436F1F40FC00E946E0238
:10022000F82E0E946E028C018F2D61E00E949003D7
:100230008F2DB8010E9430030EC00E946E02182F4D
:100240000E946E02082F812F61E00E949003812F8F
:10025000602F0E94CF031F910F91FF9008951F936D
:1002600084E60E94DF0112E0812F0E9423040E9495
:10027000F1011F5F1B30C1F70E94EA011F91089531
:100280001F930E946402813629F0843689F40E940B
:100290002F010EC081E60E94DF0110E0812F0E9435
:1002A0000E030E94F1011F5F1630C1F70E94EA01A0
:1002B0001F9108950F931F93DF93CF93CDB7DEB7B0
:1002C00027970FB6F894DEBF0FBECDBF80912601F1
:1002D000882379F089E60E94DF010E942F011092A5
:1002E000260181E06DEF70E043E050E00E947E0265
:1002F00025C00E9400021816190604F50E94640227
:10030000682F8E010F5F1F4FC8010E947308C8013C
:1003100060E071E00E94CE07882311F00E94400146
:10032000CE01019662E071E00E94CE07882311F0B1
:100330000E940401CE0101960E948C0827960FB6F8
:10034000F894DEBF0FBECDBFCF91DF911F910F910B
:1003500008950F931F930CEF11E0C80140E052EC99
:1003600061E070E00E940005C80164E071E00E9455
:10037000BB0781E06DEF70E043E050E00E947E0239
:100380008091090161E00E94900380910B0161E07E
:100390000E94900380910D0161E00E9490031F91E3
:1003A0000F91089580916F01813029F48CEF91E0D5
:1003B00060E20E94C00681E080936F0108951F9360
:1003C000182F0E94D2018CEF91E0612F0E94C0068D
:1003D0001F91089510926F018CEF91E00E94C80662
:1003E00008950F931F938C010E94D2018CEF91E02E
:1003F000B8014AE050E00E94A8071F910F910895AC
:100400001F93CF93DF9310922701C0E0D0E011E05B
:100410002EC08CEF91E00E94B805809328018A30AD
:10042000E1F02091290130912A018D3061F4E90138
:10043000F901E55DFE4F108210922A011092290108
:10044000109327010AC0F901E55DFE4F80832F5FFD
:100450003F4F30932A0120932901809129019091E7
:100460002A01CF9724F010922A01109229018CEFD3
:1004700091E00E948705181619065CF2CE01DF9103
:10048000CF911F91089580912701882319F0813021
:1004900019F405C020E016C080E090E005C082E0BD
:1004A000809327018BE291E067E071E04BE651E039
:1004B0000E94C30090936E0180936D0120E0892B10
:1004C00009F021E0822F08950E944302882329F039
:1004D000E0916D01F0916E01808108950E944302C8
:1004E000882319F420E030E007C080916D019091DD
:1004F0006E010E948C009C01C9010895823000F5B4
:10050000E82FF0E0EE0FFF1FE059FE4F718360838C
:10051000882319F08130A1F408C0809169008C7F94
:10052000842B80936900E89A089580916900440FB4
:10053000551F440F551F837F842B80936900E99AD0
:100540000895823080F4882319F0813021F402C0AC
:10055000E89801C0E998E82FF0E0EE0FFF1FE0599E
:10056000FE4F1182108208951F920F920FB60F92C4
:1005700011242F933F934F935F936F937F938F93A8
:100580009F93AF93BF93EF93FF93809170019091EE
:100590007101892B29F0E0917001F09171010995A9
:1005A000FF91EF91BF91AF919F918F917F916F914B
:1005B0005F914F913F912F910F900FBE0F901F9021
:1005C00018951F920F920FB60F9211242F933F93FD
:1005D0004F935F936F937F938F939F93AF93BF934B
:1005E000EF93FF938091720190917301892B29F011
:1005F000E0917201F09173010995FF91EF91BF9124
:10060000AF919F918F917F916F915F914F913F91AA
:100610002F910F900FBE0F901F901895982F8E302E
:1006200008F09E50977080910F018295880F880F77
:10063000807C892B80937C0080917A0080648093F9
:100640007A0080917A0086FDFCCF2091780040915D
:100650007900942F80E030E0282B392BC9010895D0
:100660001F93CF93DF93182FEB0161E00E9490035B
:10067000209709F44AC0CF3FD10509F449C0E12FC2
:10068000F0E0E255FF4F84918330C1F0843028F4CC
:10069000813051F08230B1F50CC0863019F18730CD
:1006A00049F1843079F514C084B5806884BDC7BD34
:1006B00033C084B5806284BDC8BD2EC080918000E7
:1006C000806880938000D0938900C093880024C004
:1006D00080918000806280938000D0938B00C093D3
:1006E0008A001AC08091B00080688093B000C093E7
:1006F000B30012C08091B00080628093B000C093BC
:10070000B4000AC0C038D1051CF4812F60E002C0DB
:10071000812F61E00E94CF03DF91CF911F91089557
:10072000CF93DF93482F50E0CA0186569F4FFC01BC
:1007300034914A575F4FFA018491882369F190E020
:10074000880F991FFC01E859FF4FA591B491FC0156
:10075000EE58FF4FC591D491662351F42FB7F8940A
:100760008C91932F909589238C93888189230BC03A
:10077000623061F42FB7F8948C91932F9095892370
:100780008C938881832B88832FBF06C09FB7F894F2
:100790008C91832B8C939FBFDF91CF910895482F2D
:1007A00050E0CA0182559F4FFC012491CA01865630
:1007B0009F4FFC0194914A575F4FFA0134913323C4
:1007C00009F440C0222351F1233071F0243028F481
:1007D0002130A1F0223011F514C02630B1F02730BD
:1007E000C1F02430D9F404C0809180008F7703C019
:1007F000809180008F7D8093800010C084B58F77BA
:1008000002C084B58F7D84BD09C08091B0008F7710
:1008100003C08091B0008F7D8093B000E32FF0E0A3
:10082000EE0FFF1FEE58FF4FA591B4912FB7F8942C
:10083000662321F48C919095892302C08C91892B99
:100840008C932FBF0895682F70E0CB0182559F4F86
:10085000FC012491CB0186569F4FFC0144916A57BD
:100860007F4FFB019491992319F420E030E03CC0C4
:10087000222351F1233071F0243028F42130A1F0EB
:10088000223011F514C02630B1F02730C1F02430E9
:10089000D9F404C0809180008F7703C080918000DC
:1008A0008F7D8093800010C084B58F7702C084B59F
:1008B0008F7D84BD09C08091B0008F7703C0809187
:1008C000B0008F7D8093B000892F90E0880F991F32
:1008D00084589F4FFC01A591B4918C9120E030E0A9
:1008E000842311F021E030E0C901089508951F929A
:1008F0000F920FB60F9211242F933F934F938F9324
:100900009F93EF93FF938091C00082FD1DC04091A3
:10091000C6002091B4013091B5012F5F3F4F2F7376
:1009200030708091B6019091B7012817390771F0A6
:10093000E091B401F091B501EC58FE4F4083309343
:10094000B5012093B40102C08091C600FF91EF91E0
:100950009F918F914F913F912F910F900FBE0F90CC
:100960001F901895E0910802F0910902E05CFF4F9A
:100970008191919120813181821B930B8F739070B3
:10098000892B11F00E94760408951F920F920FB6E2
:100990000F9211242F933F938F939F93EF93FF9385
:1009A0002091F8013091F9018091FA019091FB01B9
:1009B0002817390731F48091C1008F7D8093C100E1
:1009C00014C0E091FA01F091FB01E854FE4F208140
:1009D0008091FA019091FB0101968F739070909332
:1009E000FB018093FA012093C600FF91EF919F9144
:1009F0008F913F912F910F900FBE0F901F901895E0
:100A0000AF92BF92DF92EF92FF920F931F93CF931B
:100A1000DF93EC017A018B01DD24403081EE580731
:100A200080E0680780E0780711F0DD24D39491E03E
:100A3000A92EB12CEC89FD89DD2069F0C50108A043
:100A400002C0880F991F0A94E2F7808360E079E082
:100A50008DE390E005C0108260E874E88EE190E0DC
:100A6000A80197010E944A0B21503040404050405D
:100A7000569547953795279580E12030380720F027
:100A8000DD2011F0DD24D6CFE889F9893083EA89A9
:100A9000FB89208319A2EE89FF89408121E030E0A3
:100AA000C9010C8C02C0880F991F0A94E2F7482BE9
:100AB0004083EE89FF894081C9010D8C02C0880FF7
:100AC000991F0A94E2F7482B4083EE89FF89408101
:100AD000C9010E8C02C0880F991F0A94E2F7482BB7
:100AE0004083EE89FF8980810F8C02C0220F331F63
:100AF0000A94E2F7209528232083DF91CF911F915C
:100B00000F91FF90EF90DF90BF90AF900895DC01C0
:100B10001C96ED91FC911D97E05CFF4F2191319166
:100B200080819181281B390B2F733070C901089582
:100B3000DC011C96ED91FC911D97E05CFF4F20813C
:100B40003181E054F040DF01AE5BBF4F8D919C914D
:100B500011972817390719F42FEF3FEF07C08D9130
:100B60009C91E80FF91F8081282F30E0C90108957A
:100B7000DC011C96ED91FC911D97E05CFF4F2081FC
:100B80003181E054F040DF01AE5BBF4F8D919C910D
:100B900011972817390719F42FEF3FEF10C08D91E7
:100BA0009C911197E80FF91F20818D919C911197CD
:100BB00001968F73907011969C938E9330E0C901CB
:100BC0000895DC0191968C919197882339F0549681
:100BD000ED91FC915597808186FFF9CF91961C92FB
:100BE0000895CF93DF93EC01EE85FF85E05CFF4F26
:100BF00020813181E054F0402F5F3F4F2F733070E0
:100C0000DF01AE5BBF4F8D919C911197281739077B
:100C1000D1F3E05CFF4F80819181E054F040E80F18
:100C2000F91F6083EE85FF85E05CFF4F31832083F1
:100C3000EE89FF89208181E090E00F8C02C0880F4F
:100C4000991F0A94E2F7282B208381E089A3EC897D
:100C5000FD8980818064808381E090E0DF91CF9185
:100C600008951092FF011092FE0188EE93E0A0E03B
:100C7000B0E08093000290930102A0930202B0932F
:100C800003028AE191E09093FD018093FC0184E7E7
:100C900091E0909309028093080288EB91E0909391
:100CA0000B0280930A0285EC90E090930D028093F2
:100CB0000C0284EC90E090930F0280930E0280EC83
:100CC00090E0909311028093100281EC90E0909359
:100CD00013028093120282EC90E0909315028093AD
:100CE000140286EC90E0909317028093160284E041
:100CF0008093180283E08093190287E080931A02A0
:100D000085E080931B0281E080931C020895CF93BD
:100D1000DF930E94F00A0E94A901C2EBD4E00E9476
:100D20005A012097E1F30E94B204F9CFCF92DF92EB
:100D3000EF92FF920F931F93CF93DF937C016B0190
:100D40008A01C0E0D0E00FC0D6016D916D01D701DE
:100D5000ED91FC910190F081E02DC7010995C80F3C
:100D6000D91F015010400115110571F7CE01DF9117
:100D7000CF911F910F91FF90EF90DF90CF9008954A
:100D8000DC01ED91FC910190F081E02D0995089531
:100D9000EF92FF920F931F938C01DC01ED91FC9178
:100DA0000190F081E02D6DE009957C01D801ED9175
:100DB000FC910190F081E02DC8016AE009959C0149
:100DC0002E0D3F1DC9011F910F91FF90EF900895C7
:100DD000CF93DF93EC016115710519F420E030E049
:100DE0000FC0DB010D900020E9F71197A61BB70B90
:100DF000E881F9810280F381E02DAD0109959C0124
:100E0000C901DF91CF9108954F925F927F928F92A7
:100E10009F92AF92BF92CF92DF92EF92FF920F9389
:100E20001F93DF93CF93CDB7DEB7A1970FB6F8949A
:100E3000DEBF0FBECDBF2C01742ECB01223008F4D3
:100E40002AE019A231E2C32ED12CCC0EDD1E822E57
:100E50009924AA24BB24672D752FA50194010E9413
:100E60004A0B79018A01C801B701A50194010E94CA
:100E70002B0B472D461B0894C108D1084A3014F4A7
:100E8000405D01C0495CF6014083E114F1040105B5
:100E9000110521F07E2C5F2DC801DDCFC201B60106
:100EA0000E94E806A1960FB6F894DEBF0FBECDBF34
:100EB000CF91DF911F910F91FF90EF90DF90CF9036
:100EC000BF90AF909F908F907F905F904F900895CC
:100ED000CF92DF92EF92FF920F931F93CF93DF9306
:100EE000EC016A017B012115310541F4E881F981AA
:100EF0000190F081E02D642F09951FC02A30310543
:100F0000D1F477FF17C0E881F9810190F081E02DDD
:100F10006DE209958C0144275527BA014C195D09EA
:100F20006E097F09CE012AE00E9404079801280F6C
:100F3000391F04C02AE00E9404079C01C901DF9107
:100F4000CF911F910F91FF90EF90DF90CF90089578
:100F5000EF92FF920F931F937B019A010027F7FCFA
:100F60000095102FB801A7010E9468071F910F91EB
:100F7000FF90EF900895EF92FF920F931F937C01E3
:100F80000E94E8068C01C7010E94C806080F191FBD
:100F9000C8011F910F91FF90EF900895DC01FB01B4
:100FA00014968D919C911597892B31F461157105DB
:100FB000A9F090E0808108C00D90BC91A02D611532
:100FC000710529F490E08C91882349F407C0CD0184
:100FD0000E94B3009C0190E0232B09F491E0892F3B
:100FE00008950F931F93CF93DF93EC018B016F5FF5
:100FF0007F4F888199810E94C709009711F480E092
:1010000005C0998388831B830A8381E0DF91CF9198
:101010001F910F910895CF93DF93EC0188819981FF
:10102000892B29F08A819B818617970760F4CE016E
:101030000E94F107882341F08C819D81892B19F44E
:10104000E881F981108281E0DF91CF910895CF93FB
:10105000DF93EC0188819981009711F00E942F099C
:10106000198218821D821C821B821A82DF91CF9105
:101070000895EF92FF920F931F93CF93DF93EC01AC
:101080007B018A01BA010E940B08882321F4CE015A
:101090000E94270807C01D830C8388819981B701AE
:1010A0000E94BC00CE01DF91CF911F910F91FF9064
:1010B000EF9008950F931F93182F092F6115710555
:1010C00059F0DB010D900020E9F71197A61BB70B33
:1010D000AD010E94390802C00E942708812F902F7D
:1010E0001F910F910895DF93CF9300D0CDB7DEB756
:1010F000FC011182108213821282158214821682E0
:1011000069831A82BE016F5F7F4F0E945A080F9059
:101110000F90CF91DF910895FC01808191810E9411
:101120002F0908950F931F93CF93DF93BC01823053
:10113000910510F462E070E0E0912902F0912A023A
:10114000A0E0B0E040E050E024C0808191818617AB
:101150009707D0F08617970771F4828193811097D3
:1011600029F013969C938E9312972CC090932A0289
:101170008093290227C04115510519F0841795075E
:1011800018F4EF018D01AC01DF01828193819C0194
:10119000F9013097D1F641155105F9F0CA01861BC6
:1011A000970B8430910580F48A819B81011511058C
:1011B00021F0F8019383828304C090932A028093E4
:1011C0002902FE01329645C0FE01E80FF91F619326
:1011D00071930297998388833CC0809127029091F4
:1011E0002802892B41F48091120190911301909370
:1011F0002802809327024091140150911501411556
:10120000510541F44DB75EB78091100190911101E5
:10121000481B590B209127023091280224173507CB
:10122000B0F4CA01821B930B8617970780F0AB01BD
:101230004E5F5F4F8417950750F0420F531F509336
:10124000280240932702F9016193719302C0E0E004
:10125000F0E0CF01DF91CF911F910F910895CF93CF
:10126000DF939C01009709F48FC0EC0122971B8249
:101270001A826091290270912A026115710581F428
:1012800088819981820F931F209127023091280233
:101290002817390739F5D0932802C093270274C064
:1012A000DB0140E050E0AC17BD0708F1BB83AA8327
:1012B000FE0121913191E20FF31FAE17BF0779F4C0
:1012C0008D919C911197280F391F2E5F3F4F3983C5
:1012D000288312968D919C9113979B838A83411545
:1012E000510571F4D0932A02C09329024DC0129681
:1012F0008D919C911397AD01009711F0DC01D3CF34
:10130000DA011396DC93CE931297FA012191319171
:10131000E20FF31FCE17DF0769F488819981280F48
:10132000391F2E5F3F4FFA01318320838A819B81D1
:1013300093838283E0E0F0E0DB0112968D919C9133
:101340001397009719F0BC01FD01F6CFAB014E5F7A
:101350005F4FDB018D919C91840F951F2091270297
:10136000309128022817390779F4309729F4109220
:101370002A021092290202C0138212824250504067
:101380005093280240932702DF91CF9108956F92E6
:101390007F928F929F92AF92BF92CF92DF92EF9205
:1013A000FF920F931F93CF93DF938C01009729F443
:1013B000CB010E9492088C01BBC08EEFE82E8FEF0C
:1013C000F82EE00EF11E4801860E971E8E149F0423
:1013D00008F4ACC0D7014D915C911197461757079F
:1013E000B8F04530510508F4A3C0CA010497861728
:1013F000970708F49DC042505040461B570BF4011C
:10140000419351936D937C93CF010E942F0990C01B
:101410005B01A41AB50A3801640E751EA091290259
:10142000B0912A02CC24DD24E0E0F0E047C0A6150C
:10143000B705A9F5CD91DC911197CE0102968A15D9
:101440009B0568F1CE018A199B09029612962C9190
:10145000129713963C91059758F0F4012283338339
:10146000CA19DB09D183C083D7016D937C9309C06E
:101470004E5F5F4F4C0F5D1FF70151834083C901E1
:10148000FC01C114D10431F0D6011396FC93EE9304
:1014900012974EC0F0932A02E093290249C08D9121
:1014A0009C911197E817F90708F4FC016D01129659
:1014B0008C91129713969C919C01D901109709F079
:1014C000B6CF809127029091280286159705E9F4FE
:1014D000E617F707D0F4209114013091150121157A
:1014E000310541F42DB73EB7809110019091110163
:1014F000281B390B82169306C8F49092280280921A
:101500002702F7017183608313C0CB010E94920808
:10151000EC01009759F0D7014D915C91B8010E9400
:10152000AA00C8010E942F098E0102C000E010E04D
:10153000C801DF91CF911F910F91FF90EF90DF9045
:10154000CF90BF90AF909F908F907F906F900895B5
:101550001F920F920FB60F9211242F933F938F93E8
:101560009F93AF93BF938091220290912302A09109
:101570002402B0912502309126020196A11DB11DD1
:10158000232F2D5F2D3720F02D570196A11DB11D62
:10159000209326028093220290932302A093240298
:1015A000B093250280911E0290911F02A09120020B
:1015B000B09121020196A11DB11D80931E0290934E
:1015C0001F02A0932002B0932102BF91AF919F917F
:1015D0008F913F912F910F900FBE0F901F901895F4
:1015E000789484B5826084BD84B5816084BD85B5FE
:1015F000826085BD85B5816085BDEEE6F0E08081C5
:1016000081608083E1E8F0E01082808182608083E5
:10161000808181608083E0E8F0E080818160808368
:10162000E1EBF0E0808184608083E0EBF0E080819A
:1016300081608083EAE7F0E080818460808380813C
:1016400082608083808181608083808180688083E4
:101650001092C1000895629FD001739FF001829F94
:10166000E00DF11D649FE00DF11D929FF00D839F31
:10167000F00D749FF00D659FF00D9927729FB00DCE
:10168000E11DF91F639FB00DE11DF91FBD01CF01E1
:1016900011240895A1E21A2EAA1BBB1BFD010DC047
:1016A000AA1FBB1FEE1FFF1FA217B307E407F50712
:1016B00020F0A21BB30BE40BF50B661F771F881FEE
:1016C000991F1A9469F760957095809590959B0184
:1016D000AC01BD01CF010895EE0FFF1F0590F491FD
:0816E000E02D0994F894FFCFFE
:1016E80072007700594F0020000D000C000B00011C
:1016F80080002B02000000000000F1059606870517
:06170800B8059805E1059B
:00000001FF
